:0400000007EF00F016
:0A0008007E820BED08F0D6EF0CF03D
:10100000003738392F3435362A3132332D23303DED
:051010002B2569000022
:101016000600F2A811EF08F013EF08F01CEF08F035
:10102600F2A218EF08F01AEF08F01CEF08F0BDEC7A
:101036000DF0F0A621EF08F023EF08F02CEF08F0F2
:10104600F0A028EF08F02AEF08F02CEF08F0BBEC30
:101056000DF0F0A831EF08F033EF08F03CEF08F0A0
:10106600F0A238EF08F03AEF08F03CEF08F0B9ECE0
:101076000DF0F2A641EF08F043EF08F05EEF08F03E
:10108600F2A048EF08F04AEF08F05EEF08F081A8FA
:101096004FEF08F051EF08F05EEF08F05B04D8A4BC
:1010A60057EF08F059EF08F05EEF08F0000E5B6EA0
:1010B600000E86EC0DF0F2A663EF08F065EF08F07F
:1010C60080EF08F0F2A06AEF08F06CEF08F080EF0E
:1010D60008F081B871EF08F073EF08F080EF08F0C0
:1010E6005B50D8A479EF08F07BEF08F080EF08F0AA
:1010F600010E5B6E010E86EC0DF0F2A685EF08F090
:1011060087EF08F0A2EF08F0F2A08CEF08F08EEF60
:1011160008F0A2EF08F081AA93EF08F095EF08F027
:10112600A2EF08F05A04D8A49BEF08F09DEF08F050
:10113600A2EF08F0000E5A6E000E79EC0DF0F2A642
:10114600A7EF08F0A9EF08F0C4EF08F0F2A0AEEFA1
:1011560008F0B0EF08F0C4EF08F081BAB5EF08F078
:10116600B7EF08F0C4EF08F05A50D8A4BDEF08F066
:10117600BFEF08F0C4EF08F0010E5A6E010E79ECCD
:101186000DF0F2A6C9EF08F0CBEF08F0E6EF08F095
:10119600F2A0D0EF08F0D2EF08F0E6EF08F081AC4D
:1011A600D7EF08F0D9EF08F0E6EF08F05904D8A415
:1011B600DFEF08F0E1EF08F0E6EF08F0000E596EF9
:1011C600000E6CEC0DF0F2A6EBEF08F0EDEF08F078
:1011D60008EF09F0F2A0F2EF08F0F4EF08F008EFDC
:1011E60009F081BCF9EF08F0FBEF08F008EF09F011
:1011F6005950D8A401EF09F003EF09F008EF09F000
:10120600010E596E010E6CEC0DF0F2A60DEF09F011
:101216000FEF09F02AEF09F0F2A014EF09F016EF2C
:1012260009F02AEF09F081AE1BEF09F01DEF09F076
:101236002AEF09F05804D8A423EF09F025EF09F0A6
:101246002AEF09F0000E586E000E5FEC0DF0F2A6C4
:101256002FEF09F031EF09F04CEF09F0F2A036EF6D
:1012660009F038EF09F04CEF09F081BE3DEF09F0C7
:101276003FEF09F04CEF09F05850D8A445EF09F0BC
:1012860047EF09F04CEF09F0010E586E010E5FECC6
:101296000DF09DAC51EF09F053EF09F05CEF09F04A
:1012A6009EAC58EF09F05AEF09F05CEF09F0C3EC79
:1012B6000DF0F2AA61EF09F063EF09F06CEF09F0A7
:1012C600F2A468EF09F06AEF09F06CEF09F0A9ECF7
:1012D6000DF09DA071EF09F073EF09F07CEF09F0B6
:1012E6009EA078EF09F07AEF09F07CEF09F0A3EC05
:1012F6000DF09DA281EF09F083EF09F08CEF09F064
:101306009EA288EF09F08AEF09F08CEF09F0AFECA6
:101316000DF0A0A291EF09F093EF09F09CEF09F010
:10132600A1A298EF09F09AEF09F09CEF09F09DEC65
:101336000DF09DA8A1EF09F0A3EF09F0ACEF09F0BD
:101346009EA8A8EF09F0AAEF09F0ACEF09F0B3ECFC
:101356000DF09DAAB1EF09F0B3EF09F0BCEF09F06B
:101366009EAAB8EF09F0BAEF09F0BCEF09F0C5EC98
:101376000DF09DA6C1EF09F0C3EF09F0CCEF09F01F
:101386009EA6C8EF09F0CAEF09F0CCEF09F0B5EC5C
:101396000DF0A0A6D1EF09F0D3EF09F0DCEF09F0CC
:1013A600A1A6D8EF09F0DAEF09F0DCEF09F0B7EC07
:1013B6000DF09DA4E1EF09F0E3EF09F0ECEF09F081
:1013C6009EA4E8EF09F0EAEF09F0ECEF09F0C1ECB2
:1013D6000DF0A0A0F1EF09F0F3EF09F0FCEF09F032
:1013E600A1A0F8EF09F0FAEF09F0FCEF09F0BFEC65
:1013F6000DF07E921100010E726E6A506B10D8B419
:1014060007EF0AF009EF0AF01AEF0AF06AC0D9FFEF
:101416006BC0DAFFDF30E832E832070B6C6E070E7E
:101426006C6418EF0AF01AEF0AF07DEF0AF0000E6E
:10143600726E9EEF0AF06AC0D9FF6BC0DAFFDF302A
:10144600E832E832070B6C6E010E6D6E6C2A2EEFD9
:101456000AF0D8906D366C2E2CEF0AF06D50FF0A0C
:101466006E6E6AC0D9FF6BC0DAFFDF50070B6F6E76
:101476006F50020D4D0EF324D96E000EF420DA6E75
:10148600DECF70F0DDCF71F070C0D9FF71C0DAFF2A
:101496006E50DF169EEF0AF06AC0D9FF6BC0DAFF06
:1014A600DF30E832E832070B6C6E010E6D6E6C2A87
:1014B6005FEF0AF0D8906D366C2E5DEF0AF06AC0C9
:1014C600D9FF6BC0DAFFDF50070B6E6E6E50020D50
:1014D6004D0EF324D96E000EF420DA6EDECF6FF0D7
:1014E600DDCF70F06FC0D9FF70C0DAFF6D50DF122C
:1014F6009EEF0AF06AC0D9FF6BC0DAFFDFBC86EF49
:101506000AF089EF0AF0010E8AEF0AF0000E6C6EFF
:101516006D6A6D50000AD8B493EF0AF01AEF0AF01C
:101526006C50000AD8B41EEF0AF0010AD8B44FEF87
:101536000AF01AEF0AF072501200010E736E6A502A
:101546006B10D8B4A9EF0AF0ABEF0AF0BCEF0AF0C3
:101556006AC0D9FF6BC0DAFFDF30E832E832070B2A
:101566006D6E070E6D64BAEF0AF0BCEF0AF01FEF5E
:101576000BF0000E736E34EF0BF06AC0D9FF6BC030
:10158600DAFFDF30E832E832070B6D6E010E6E6E61
:101596006D2AD0EF0AF0D8906E366D2ECEEF0AF097
:1015A6006E50FF0A6F6E6AC0D9FF6BC0DAFFDF505C
:1015B600070B706E7050020D430EF324D96E000EA9
:1015C600F420DA6EDECF71F0DDCF72F071C0D9FF94
:1015D60072C0DAFF6F50DF1634EF0BF06AC0D9FF26
:1015E6006BC0DAFFDF30E832E832070B6D6E010EB2
:1015F6006E6E6D2A01EF0BF0D8906E366D2EFFEFF2
:101606000AF06AC0D9FF6BC0DAFFDF50070B6F6EB6
:101616006F50020D430EF324D96E000EF420DA6EDD
:10162600DECF70F0DDCF71F070C0D9FF71C0DAFF88
:101636006E50DF1234EF0BF06C506D6E6E6A6E50AA
:10164600000AD8B429EF0BF0BCEF0AF06D50000A7F
:10165600D8B4C0EF0AF0010AD8B4F1EF0AF0BCEF33
:101666000AF0735012004CEC0DF0000E7D6E620E07
:10167600746E000E756E57C06AF06B6A000E6D6E62
:101686000A0E6C6EFEEC0BF06A50766E56EC0CF0A1
:101696007C6E680E6A6E000E6B6E010E6C6EA0ECB0
:1016A6000AF07C6E1A0E7B6EF80EE82EFED77B2EA5
:1016B600FCD700D0680E6A6E000E6B6E000E6C6E64
:1016C600A0EC0AF0620E746E000E756E57C06AF0DA
:1016D6006B6A000E6D6E0A0E6C6E9CEC0BF06A5017
:1016E600766E56EC0CF0670E6A6E000E6B6E010E8F
:1016F6006C6EA0EC0AF01A0E7B6EF80EE82EFED782
:101706007B2EFCD700D0670E6A6E000E6B6E000E45
:101716006C6EA0EC0AF07D2A320E7D6495EF0BF01C
:1017260097EF0BF03AEF0BF0572A38EF0BF007EF75
:1017360000F0000E6F6E6DBEA5EF0BF0A3EF0BF081
:10174600ABEF0BF06C6C6D1ED8B06D2A010E6F6E90
:101756006BBEB2EF0BF0B0EF0BF0B8EF0BF06A6CAC
:101766006B1ED8B06B2A010E6F1A000E716E000E3A
:10177600706E6C506D10D8B4C3EF0BF0C5EF0BF064
:10178600EDEF0BF0010E6E6ECDEF0BF0D8906C36D0
:101796006D366E2A6DAED2EF0BF0D4EF0BF0C9EFBB
:1017A6000BF0D890703671366C506A5C6D506B5881
:1017B600D8A0E0EF0BF0E2EF0BF0E7EF0BF06C5088
:1017C6006A5E6D506B5A7080D8906D326C326E2E98
:1017D600D4EF0BF06F50D8B4F3EF0BF0F5EF0BF03E
:1017E600F9EF0BF0706C711ED8B0712A70C06AF0F8
:1017F60071C06BF01200000E6F6E6BBE07EF0CF03F
:1018060005EF0CF00DEF0CF06A6C6B1ED8B06B2A6E
:10181600010E6F6E6DBE14EF0CF012EF0CF018EFA8
:101826000CF06C6C6D1ED8B06D2A6C506D10D8B46F
:101836001FEF0CF021EF0CF045EF0CF0010E6E6E71
:1018460029EF0CF0D8906C366D366E2A6DAE2EEF01
:101856000CF030EF0CF025EF0CF06C506A5C6D501C
:101866006B58D8A039EF0CF03BEF0CF03FEF0CF0C3
:101876006C506A5E6D506B5AD8906D326C326E2E1B
:1018860030EF0CF06F50D8B44BEF0CF04DEF0CF07E
:1018960051EF0CF06A6C6B1ED8B06B2A6AC06AF006
:1018A6006BC06BF0120074507510D8A45DEF0CF08D
:1018B6005FEF0CF06BEF0CF0090E766465EF0CF041
:1018C60067EF0CF06BEF0CF0000E776E9EEF0CF0EE
:1018D60074C06AF075C06BF07650010B6C6EA0ECAC
:1018E6000AF0776E010E74246A6E000E75206B6E18
:1018F600D8907630010B6C6EA0EC0AF0776E020E73
:1019060074246A6E000E75206B6E7640E8423F0BBB
:10191600010B6C6EA0EC0AF0776E030E74246A6EEF
:10192600000E75206B6E7638E8461F0B010B6C6E49
:10193600A0EC0AF0776E7750120074507510D8B488
:10194600A7EF0CF0A9EF0CF0BAEF0CF074C0D9FFBA
:1019560075C0DAFFDF30E832E832070B766E070E25
:101966007664B8EF0CF0BAEF0CF0BEEF0CF0000E98
:10197600776ED4EF0CF074C06AF075C06BF0FEECB5
:1019860009F0776E74C06AF075C06BF074C0D9FF49
:1019960075C0DAFF000EDFBE010E6C6EA0EC0AF019
:1019A600776E77501200260EF66E1B0EF76E000E3F
:1019B600F86E00EE80F010EE14F00900F5CFEEFFA1
:1019C600E550E150FAE1720EF66E1A0EF76E000E51
:1019D600F86E00EE43F010EE26F00900F5CFEEFFAC
:1019E600E550E150FAE10001996B986B976B966BA5
:1019F600956B946B00EE01F0420EEE6AE806FDE18F
:101A06007E907E92000136EF0BF078507910D8A4C4
:101A16000FEF0DF011EF0DF015EF0DF0000E7A6ED1
:101A260037EF0DF078C074F079C075F0A0EC0CF0CB
:101A36007A6E010E7824746E000E7920756EA0EC15
:101A46000CF07A6E020E7824746E000E7920756E94
:101A5600A0EC0CF07A6E030E7824746E000E7920DA
:101A6600756EA0EC0CF07A6E7A501200890F8A0F10
:101A76008B0F8C0F8D0F920F930F940F950F960F60
:101A86003001010101020A121A222A020A121A0060
:101A96000B03620E786E000E796E08EC0DF0680E80
:101AA600746E000E756EA0EC0CF0670E746E000E70
:101AB600756EA0EC0CF01200696EF2906950D8A415
:101AC60067EF0DF069EF0DF06BEF0DF06BEF0DF0BA
:101AD6001200696EF2906950D8A474EF0DF076EF9B
:101AE6000DF078EF0DF078EF0DF01200696EF290C0
:101AF6006950D8A481EF0DF083EF0DF085EF0DF05E
:101B060085EF0DF01200696EF2906950D8A48EEF41
:101B16000DF090EF0DF092EF0DF092EF0DF0120038
:101B2600800F810F820F830F840F323A030B131B32
:101B3600232B333BA1920C50B36E0BC0B2FF1200A5
:101B46009E901250CF6E11C0CEFF1200F294165026
:101B5600D76E15C0D6FF12009E923BC0CCFF120076
:101B66009D9812009E961200A1961200F092120005
:101B7600F0901200F2921200A19012009E941200B0
:061B86009E9C12001200FB
:020000040020DA
:08000000FFFFFFFFFFFFFFFF00
:020000040030CA
:0E000000FF020912FF8181FF0FC00FE00F40C9
:00000001FF
